:100000000C942A000C9447000C9447000C94470071
:100010000C94A70A0C944E0A0C94AF100C94470051
:100020000C9447000C9447000C9465090C940C093F
:100030000C9447000C9447000C9447000C94470024
:100040000C9447000C9447000C9447000C94470014
:100050000C94470011241FBECFE5D8E0DEBFCDBF12
:1000600011E0A0E6B0E0E0E2FFE302C005900D92EF
:10007000AE36B107D9F711E0AEE6B1E001C01D928E
:10008000A03AB107E1F70E94D91E0C948E1F0C9480
:100090000000EF92FF920F931F937B018C0120E0F1
:1000A00030E040E05FE40E94F50388238CF0C80153
:1000B000B70120E030E040E05FE40E94C1010E940F
:1000C00055049B01AC01205030404040504806C0D0
:1000D000C801B7010E9455049B01AC01B901CA01D6
:1000E0001F910F91FF90EF900895A0E0B0E0EBE733
:1000F000F0E00C94571FDC012B01FA019C91923027
:1001000008F439C1EB018881823008F433C194309E
:1001100069F4843009F02FC111969C91119789815F
:10012000981709F428C1A0E6B0E025C1843009F48D
:1001300021C18230A9F4923009F01DC19A01AD01AC
:1001400088E0EA010990AE01E90109929E0181501F
:10015000C1F7E201898111969C918923818308C1AD
:10016000923009F407C112962D903C901397EB0141
:100170008A819B811496AD90BD90CD90DC901797AD
:10018000EC80FD800E811F819101281B390BB90184
:1001900037FF04C066277727621B730B6032710537
:1001A0000CF061C0121613066CF537014801062EDB
:1001B00004C096948794779467940A94D2F721E0C8
:1001C00030E040E050E004C0220F331F441F551FB1
:1001D0006A95D2F721503040404050402E213F21B7
:1001E00040235123211531054105510521F021E01E
:1001F00030E040E050E079018A01E628F72808293C
:1002000019293CC0232BD1F1260E371E350146019A
:10021000062E04C096948794779467940A94D2F734
:1002200021E030E040E050E004C0220F331F441FC3
:10023000551F6A95D2F721503040404050402A2146
:100240003B214C215D21211531054105510521F04E
:1002500021E030E040E050E059016A01A628B728CB
:10026000C828D9280BC0821593052CF01C01AA249C
:10027000BB24650103C0EE24FF24870111969C91E5
:10028000D20111968C91981709F445C0992339F041
:10029000A80197012A193B094C095D0906C0A6016E
:1002A00095012E193F09400B510B57FD08C01182D3
:1002B0003382228224833583468357831DC081E0A5
:1002C00081833382228288279927DC01821B930B4A
:1002D000A40BB50B84839583A683B7830DC0220F2F
:1002E000331F441F551F24833583468357838281E0
:1002F000938101979383828324813581468157813D
:10030000DA01C9010197A109B1098F5F9F4FAF4F72
:10031000BF4328F30BC0918333822282EA0CFB1C7B
:100320000C1D1D1DE482F5820683178383E0808304
:10033000248135814681578157FF1AC0C901AA27F8
:1003400097FDA095BA2F81709070A070B0705695EF
:10035000479537952795822B932BA42BB52B848318
:100360009583A683B7838281938101969383828349
:10037000DF0101C0D201CD01CDB7DEB7E2E10C94BF
:10038000731FA0E2B0E0E7ECF1E00C94631F698317
:100390007A838B839C832D833E834F835887E9E048
:1003A000EE2EF12CEC0EFD1ECE010196B7010E943F
:1003B00046068E010F5E1F4FCE010596B8010E94C2
:1003C00046068A8991E089278A8BC701B801AE0168
:1003D000475E5F4F0E9475000E947105A096E6E09F
:1003E0000C947F1FA0E2B0E0E8EFF1E00C94631FF3
:1003F00069837A838B839C832D833E834F835887C5
:10040000F9E0EF2EF12CEC0EFD1ECE010196B701A6
:100410000E9446068E010F5E1F4FCE010596B80161
:100420000E944606C701B801AE01475E5F4F0E94B9
:1004300075000E947105A096E6E00C947F1FA0E273
:10044000B0E0E5E2F2E00C94571F69837A838B8376
:100450009C832D833E834F835887CE010196BE0136
:10046000675F7F4F0E944606CE010596BE016F5E14
:100470007F4F0E9446069985923088F089898230A4
:10048000C8F0943019F4823051F404C0843029F457
:10049000923081F480E690E0C6C0923049F420E0CA
:1004A0009A858A89981321E02A87CE010996BBC0D4
:1004B000823049F420E09A858A89981321E02A8BBA
:1004C000CE014196B0C02D843E844F8458886D88FB
:1004D0007E888F88988CEE24FF248701AA24BB2471
:1004E000650140E050E060E070E0E0E0F0E0C10174
:1004F00081709070892BE9F0E60CF71C081D191D1E
:100500009A01AB012A0D3B1D4C1D5D1D80E090E062
:10051000A0E0B0E0E614F7040805190520F481E036
:1005200090E0A0E0B0E0BA01A901480F591F6A1F8E
:100530007B1FAA0CBB1CCC1CDD1C97FE08C081E0F5
:1005400090E0A0E0B0E0A82AB92ACA2ADB2A3196B6
:10055000E032F10549F0660C771C881C991C569412
:10056000479437942794C3CFFA85EA892B893C892D
:100570008B859C85280F391F2E5F3F4F17C0CA01FE
:1005800081709070892B61F016950795F794E79428
:1005900080E090E0A0E0B0E8E82AF92A0A2B1B2BC3
:1005A00076956795579547952F5F3F4F77FDE7CF36
:1005B0000CC0440F551F661F771F17FD4160EE0CDE
:1005C000FF1C001F111F21503040403090E05907A0
:1005D00090E0690790E4790760F32B8F3C8FDB0193
:1005E000CA018F779070A070B07080349105A1051A
:1005F000B10561F447FD0AC0E114F10401051105DC
:1006000029F0405C5F4F6F4F7F4F40781A8EFE1786
:1006100011F081E08A8F4D8F5E8F6F8F78A383E01A
:10062000898FCE0149960E947105A096E2E10C9453
:10063000731FA8E1B0E0EFE1F3E00C945F1F698362
:100640007A838B839C832D833E834F835887B9E0C5
:10065000EB2EF12CEC0EFD1ECE010196B7010E948F
:1006600046068E010F5E1F4FCE010596B8010E940F
:1006700046062985223008F47EC03989323010F4CC
:10068000B8017CC08A859A8989278A87243011F02D
:10069000223031F4231709F06EC060E670E06EC0BE
:1006A000343039F41D861E861F86188A1C861B86E8
:1006B00004C0323021F484E08987B7015FC02B8504
:1006C0003C858B899C89281B390B3C872B87ED84C3
:1006D000FE840F851889AD88BE88CF88D88CEA142F
:1006E000FB040C051D0540F4EE0CFF1C001F111F40
:1006F000215030403C872B8720E030E040E050E044
:1007000080E090E0A0E0B0E460E070E0EA14FB0478
:100710000C051D0540F0282B392B4A2B5B2BEA18C2
:10072000FB080C091D09B695A79597958795EE0CC2
:10073000FF1C001F111F6F5F7F4F6F31710531F775
:10074000DA01C9018F779070A070B0708034910584
:10075000A105B10561F427FD0AC0E114F10401050A
:10076000110529F0205C3F4F4F4F5F4F20782D87B8
:100770003E874F87588BBE01675F7F4FCB010E943A
:1007800071056896EAE00C947B1FA8E1B0E0EBEC01
:10079000F3E00C94631F69837A838B839C832D839E
:1007A0003E834F83588789E0E82EF12CEC0EFD1E26
:1007B000CE010196B7010E9446068E010F5E1F4FC3
:1007C000CE010596B8010E9446068985823040F028
:1007D0008989823028F0C701B8010E94BE0601C095
:1007E0008FEF6896E6E00C947F1FA8E1B0E0EBEF96
:1007F000F3E00C94631F69837A838B839C832D833E
:100800003E834F83588789E0E82EF12CEC0EFD1EC5
:10081000CE010196B7010E9446068E010F5E1F4F62
:10082000CE010596B8010E9446068985823040F0C7
:100830008989823028F0C701B8010E94BE0601C034
:100840008FEF6896E6E00C947F1FA8E1B0E0EBE242
:10085000F4E00C94631F69837A838B839C832D83DC
:100860003E834F83588789E0E82EF12CEC0EFD1E65
:10087000CE010196B7010E9446068E010F5E1F4F02
:10088000CE010596B8010E9446068985823040F067
:100890008989823028F0C701B8010E94BE0601C0D4
:1008A00081E06896E6E00C947F1FACE0B0E0EBE5F9
:1008B000F4E00C94671F69837A838B839C83CE0159
:1008C0000196BE016B5F7F4F0E9446068D8182308C
:1008D00061F1823050F1843021F48E81882351F10E
:1008E0002EC02F81388537FD20C06E812F31310514
:1008F0001CF06623F9F023C08EE190E0821B930B7D
:1009000029853A854B855C8504C056954795379572
:1009100027958A95D2F76623B1F05095409530958A
:1009200021953F4F4F4F5F4F0EC020E030E040E039
:1009300050E009C02FEF3FEF4FEF5FE704C020E02A
:1009400030E040E050E8B901CA012C96E2E00C9496
:10095000831FA8E0B0E0EFEAF4E00C945F1F7B0196
:100960008C01611571058105910519F482E0898377
:1009700060C083E089838EE1C82ED12CDC82CB82DB
:10098000ED82FE820F831887C801B7010E942205FD
:10099000FC013197F7FF3BC0222733272E1B3F0B6B
:1009A00057016801022E04C0D694C794B794A79447
:1009B0000A94D2F740E050E060E070E081E090E01F
:1009C000A0E0B0E004C0880F991FAA1FBB1F2A95A2
:1009D000D2F70197A109B1098E219F21A023B1234C
:1009E0000097A105B10521F041E050E060E070E022
:1009F0004A295B296C297D294D835E836F83788723
:100A00008EE190E08E1B9F0B9C838B8312C03097EE
:100A100081F00E2E04C0EE0CFF1C001F111F0A9463
:100A2000D2F7ED82FE820F831887CE1ADF0ADC82AE
:100A3000CB821A82CE0101960E9471052896EAE0C7
:100A40000C947B1FEF92FF920F931F937B018C01FD
:100A500080E0E81680E0F80681E0080780E01807EB
:100A600088F48FEFE816F1040105110531F028F044
:100A700088E090E0A0E0B0E017C080E090E0A0E067
:100A8000B0E012C080E0E81680E0F80680E00807D9
:100A900081E0180728F088E190E0A0E0B0E004C011
:100AA00080E190E0A0E0B0E020E230E040E050E003
:100AB000281B390B4A0B5B0B04C016950795F7945E
:100AC000E7948A95D2F7F701E859FF4F8081281BF8
:100AD000310941095109C9011F910F91FF90EF9010
:100AE0000895DF92EF92FF920F931F93FC01E48031
:100AF000F58006811781D1808081823048F480E0C2
:100B000090E0A0E1B0E0E82AF92A0A2B1B2BA5C04F
:100B1000843009F49FC0823021F4EE24FF24870141
:100B200005C0E114F1040105110519F4E0E0F0E05D
:100B300096C0628173819FEF623879070CF05BC0C9
:100B400022E83FEF261B370B2A3131052CF020E03D
:100B500030E040E050E02AC0B801A701022E04C0F6
:100B600076956795579547950A94D2F781E090E07E
:100B7000A0E0B0E004C0880F991FAA1FBB1F2A95F0
:100B8000D2F70197A109B1098E219F21A023B1239A
:100B90000097A105B10521F081E090E0A0E0B0E070
:100BA0009A01AB01282B392B4A2B5B2BDA01C901A7
:100BB0008F779070A070B07080349105A105B10559
:100BC00039F427FF09C0205C3F4F4F4F5F4F04C0EF
:100BD000215C3F4F4F4F5F4FE0E0F0E02030A0E05E
:100BE0003A07A0E04A07A0E45A0710F0E1E0F0E07D
:100BF00079018A0127C06038710564F5FB01E1586D
:100C0000FF4FD801C7018F779070A070B07080340B
:100C10009105A105B10539F4E7FE0DC080E490E02F
:100C2000A0E0B0E004C08FE390E0A0E0B0E0E80E08
:100C3000F91E0A1F1B1F17FF05C016950795F7948D
:100C4000E794319687E016950795F794E7948A958F
:100C5000D1F705C0EE24FF248701EFEFF0E06E2FFF
:100C6000679566276795902F9F77D794DD24D79453
:100C70008E2F8695492F462B582F5D29B701CA0123
:100C80001F910F91FF90EF90DF900895FC01DB0121
:100C9000408151812281622F6F7770E0221F2227CD
:100CA000221F9381892F880F822B282F30E0991FD4
:100CB0009927991F11969C93119721153105A9F534
:100CC000411551056105710511F482E037C082E8D4
:100CD0009FEF13969C938E9312979A01AB0167E056
:100CE000220F331F441F551F6A95D1F783E08C9361
:100CF0000DC0220F331F441F551F12968D919C91DA
:100D00001397019713969C938E931297203080E04F
:100D1000380780E0480780E4580758F314962D936D
:100D20003D934D935C93179708952F3F310579F4C8
:100D3000411551056105710519F484E08C930895FE
:100D400064FF03C081E08C9312C01C9210C02F5727
:100D5000304013963C932E93129783E08C9387E058
:100D6000440F551F661F771F8A95D1F7706414963C
:100D70004D935D936D937C93179708951F93DC01BA
:100D8000FB019C91923008F447C08081823008F4C6
:100D900043C0943051F411961C91843099F58181AF
:100DA000682F70E0611B71093FC0843021F09230E0
:100DB00031F48230B9F18181882389F12DC01196F7
:100DC0001C9111978230F1F081811817D9F4129695
:100DD0002D913C911397828193818217930794F010
:100DE00028173907BCF014968D919D910D90BC91F8
:100DF000A02D2481358146815781281739074A075C
:100E00005B0718F4112341F00AC082179307A40767
:100E1000B50740F4112319F061E070E005C06FEFF1
:100E20007FEF02C060E070E0CB011F910895DF9377
:100E3000CF9300D00F92CDB7DEB783E390E09B83D2
:100E40008A83E9E2F0E08A818083E0E4F0E08A814D
:100E50009B81892F99278083ABE2B0E0EBE2F0E041
:100E600080818D7F8C93ABE2B0E0EBE2F0E080819B
:100E70008E7F8C93AAE2B0E0EAE2F0E080818F7787
:100E80008C93AAE2B0E0EAE2F0E080818F7B8C9361
:100E9000AAE2B0E0EAE2F0E080818F7D8C93AAE2E2
:100EA000B0E0EAE2F0E0808188608C93AAE2B0E0F2
:100EB000EAE2F0E0808180618C9380E88983898117
:100EC0008F7B898389818F7E898389818F7D8983C7
:100ED0008981877F89838981826089838981846010
:100EE0008983AAE2B0E0EAE2F0E080818B7F8C9314
:100EF000E0E4F0E0898180830F900F900F90CF9114
:100F0000DF910895DF93CF930F92CDB7DEB789833A
:100F1000EBE2F0E08081882F90E080729070009783
:100F2000B9F3ECE2F0E0898180830F90CF91DF91FB
:100F30000895DF93CF93CDB7DEB761970FB6F894DE
:100F4000DEBF0FBECDBF998B888B1F8680C08F857B
:100F5000282F30E088899989FC01E20FF31F8081F6
:100F60000E94820780E090E0A0E4B0E48B879C8739
:100F7000AD87BE876B857C858D859E8520E030E0C2
:100F80004AEF54E40E941F02DC01CB018F83988753
:100F9000A987BA876F81788589859A8520E030E0B6
:100FA00040E85FE30E94250488232CF481E090E070
:100FB0009E838D833FC06F81788589859A8520E0E7
:100FC0003FEF4FE757E40E94C50318164CF56B85B9
:100FD0007C858D859E8520E030E040E251E40E94D2
:100FE0001F02DC01CB01BC01CD010E944900DC01E4
:100FF000CB019E838D830FC088EC90E09C838B8314
:101000008B819C810197F1F79C838B838D819E81DD
:1010100001979E838D838D819E81009769F714C00F
:101020006F81788589859A850E944900DC01CB0112
:101030009E838D838D819E819A83898389819A8104
:101040000197F1F79A8389838F858F5F8F878F85CB
:10105000282F30E088899989FC01E20FF31F8081F5
:10106000882309F074CF61960FB6F894DEBF0FBEE7
:10107000CDBFCF91DF910895DF93CF930F92CDB77E
:10108000DEB7EBE2F0E080818823DCF7ECE2F0E011
:101090008081898389810F90CF91DF910895DF93BB
:1010A000CF9300D00F92CDB7DEB705C089819A816A
:1010B00001969A83898389819A8127E0803D9207EE
:1010C00028F4EBE2F0E08081882384F7ECE2F0E0A2
:1010D00080818B838B810F900F900F90CF91DF9148
:1010E0000895DF93CF93CDB7DEB7A3E5B0E0E3E596
:1010F000F0E0808180648C93A3E5B0E0E3E5F0E06C
:101100008081877F8C93A3E5B0E0E3E5F0E0808108
:101110008F7E8C93A3E5B0E0E3E5F0E08081806210
:101120008C93A3E5B0E0E3E5F0E0808181608C93EF
:10113000A3E5B0E0E3E5F0E080818D7F8C93A3E54B
:10114000B0E0E3E5F0E0808184608C9380E090E0A3
:10115000A0E8B4E48093880190938901A0938A0168
:10116000B0938B01CF91DF910895DF93CF9300D09F
:1011700000D000D0CDB7DEB769837A838B839C83A0
:101180005E834D8326960FB6F894DEBF0FBECDBFAB
:10119000CF91DF9108950F931F93DF93CF93CDB736
:1011A000DEB728970FB6F894DEBF0FBECDBF6D83B4
:1011B0007E838F8398876D817E818F81988520E0E3
:1011C00030E04FEF53E40E941F02DC01CB01BC0171
:1011D000CD0120E030E048E453E40E941903DC0133
:1011E000CB0189839A83AB83BC830CE510E06981D2
:1011F0007A818B819C810E944900DC01CB01F8013E
:10120000808328960FB6F894DEBF0FBECDBFCF9176
:10121000DF911F910F9108951F920F920FB60F92B9
:1012200011242F933F934F935F936F937F938F93EB
:101230009F93AF93BF93EF93FF93DF93CF93CDB77C
:10124000DEB780916E0190916F01019690936F01CE
:1012500080936E0180916E0190916F019C0140E03E
:1012600050E08091840190918501A0918601B09118
:101270008701281739074A075B07A1F4E2E5F0E088
:101280008091800190918101A0918201B0918301B0
:101290008083E0917601F0917701099510926F01BA
:1012A00010926E01CF91DF91FF91EF91BF91AF91BD
:1012B0009F918F917F916F915F914F913F912F916E
:1012C0000F900FBE0F901F9018951F920F920FB6A0
:1012D0000F9211242F933F934F935F936F937F93BC
:1012E0008F939F93AF93BF93EF93FF93DF93CF932E
:1012F000CDB7DEB780917001909171010196909306
:1013000071018093700180917001909171019C0135
:1013100040E050E08091940190919501A091960158
:10132000B0919701281739074A075B0749F41092D3
:10133000710110927001E0917601F09177010995A9
:10134000CF91DF91FF91EF91BF91AF919F918F91DD
:101350007F916F915F914F913F912F910F900FBEB1
:101360000F901F901895DF93CF93CDB7DEB7A5E40C
:10137000B0E0E5E4F0E0808180648C93A5E4B0E027
:10138000E5E4F0E08081877F8C93A5E4B0E0E5E4BC
:10139000F0E080818F7E8C93A5E4B0E0E5E4F0E09E
:1013A000808180628C93A5E4B0E0E5E4F0E0808188
:1013B00081608C93A5E4B0E0E5E4F0E080818D7F6E
:1013C0008C93A5E4B0E0E5E4F0E0808184608C9348
:1013D00080E090E0A0E8B4E48093900190939101C4
:1013E000A0939201B0939301CF91DF910895DF9381
:1013F000CF9300D000D000D0CDB7DEB769837A8319
:101400008B839C835E834D8326960FB6F894DEBF54
:101410000FBECDBFCF91DF9108950F931F93DF9340
:10142000CF93CDB7DEB728970FB6F894DEBF0FBEC7
:10143000CDBF6D837E838F8398876D817E818F8101
:10144000988520E030E04FEF53E40E941F02DC015A
:10145000CB01BC01CD0120E030E048E453E40E9420
:101460001903DC01CB0189839A83AB83BC8303E43A
:1014700010E069817A818B819C810E944900DC01A6
:10148000CB01F801808328960FB6F894DEBF0FBE1B
:10149000CDBFCF91DF911F910F9108951F920F92B1
:1014A0000FB60F9211242F933F934F935F936F9337
:1014B0007F938F939F93AF93BF93EF93FF93DF93AC
:1014C000CF93CDB7DEB780917201909173010196F1
:1014D00090937301809372018091720190917301D6
:1014E0009C0140E050E080918C0190918D01A09191
:1014F0008E01B0918F01281739074A075B07A1F4C5
:10150000E4E4F0E080919C0190919D01A0919E0106
:10151000B0919F018083E0917801F0917901099564
:101520001092730110927201CF91DF91FF91EF91B0
:10153000BF91AF919F918F917F916F915F914F91EB
:101540003F912F910F900FBE0F901F9018951F92F3
:101550000F920FB60F9211242F933F934F935F93E7
:101560006F937F938F939F93AF93BF93EF93FF936B
:10157000DF93CF93CDB7DEB7809174019091750161
:1015800001969093750180937401809174019091FC
:1015900075019C0140E050E0809198019091990183
:1015A000A0919A01B0919B01281739074A075B0760
:1015B00049F4E0917801F091790109951092750153
:1015C00010927401CF91DF91FF91EF91BF91AF9194
:1015D0009F918F917F916F915F914F913F912F914B
:1015E0000F900FBE0F901F901895DF93CF93CDB73C
:1015F000DEB729970FB6F894DEBF0FBECDBF898343
:101600006A834B838981282F30E039872887888532
:1016100099858730910509F46BC128853985283073
:1016200031054CF5888599858330910509F4C7C04B
:1016300028853985243031058CF488859985813059
:10164000910509F47CC028853985223031050CF0DC
:1016500096C0888599850097C9F150C2288539853B
:101660002530310509F404C18885998586309105B6
:101670000CF01EC1C4C0288539852B30310509F412
:10168000AEC1888599858C3091056CF428853985A3
:101690002930310509F469C1888599858A30910519
:1016A0000CF080C145C1288539852E30310509F4FB
:1016B000ECC1888599858F30910509F403C228858E
:1016C00039852C30310509F4A7C118C2AFE4B0E068
:1016D000EFE4F0E080818E7F8C93AFE4B0E0EFE444
:1016E000F0E080818D7F8C93AEE4B0E0EEE4F0E03A
:1016F0008081877F8C93AEE4B0E0EEE4F0E08081FF
:101700008F7E8C93A9E5B0E0E9E5F0E0808184600C
:101710008C93A9E5B0E0E9E5F0E08081877F8C93C8
:10172000A9E5B0E0E9E5F0E080818F7E8C93A9E542
:10173000B0E0E9E5F0E080818F7D8C93DFC1AFE41C
:10174000B0E0EFE4F0E0808181608C93AFE4B0E042
:10175000EFE4F0E080818D7F8C93AEE4B0E0EEE4C6
:10176000F0E08081877F8C93AEE4B0E0EEE4F0E0BF
:1017700080818F7E8C9381E080937F01BFC1AFE435
:10178000B0E0EFE4F0E080818E7F8C93AFE4B0E0D6
:10179000EFE4F0E0808182608C93AEE4B0E0EEE4B0
:1017A000F0E08081877F8C93AEE4B0E0EEE4F0E07F
:1017B00080818F7E8C9382E080937F019FC1AFE414
:1017C000B0E0EFE4F0E0808181608C93AFE4B0E0C2
:1017D000EFE4F0E0808182608C93AEE4B0E0EEE470
:1017E000F0E08081877F8C93AEE4B0E0EEE4F0E03F
:1017F00080818F7E8C9383E080937F017FC1AFE4F3
:10180000B0E0EFE4F0E080818E7F8C93AFE4B0E055
:10181000EFE4F0E080818D7F8C93AEE4B0E0EEE405
:10182000F0E0808188608C93AEE4B0E0EEE4F0E01C
:1018300080818F7E8C93A9E5B0E0E9E5F0E08081BE
:101840008B7F8C93A9E5B0E0E9E5F0E08081877FAC
:101850008C93A9E5B0E0E9E5F0E0808180618C93AC
:10186000A9E5B0E0E9E5F0E080818F7D8C9346C189
:10187000AFE4B0E0EFE4F0E0808181608C93AFE40E
:10188000B0E0EFE4F0E080818D7F8C93AEE4B0E0D7
:10189000EEE4F0E0808188608C93AEE4B0E0EEE4AA
:1018A000F0E080818F7E8C9385E080937F0126C15C
:1018B000AFE4B0E0EFE4F0E080818E7F8C93AFE4A2
:1018C000B0E0EFE4F0E0808182608C93AEE4B0E0C1
:1018D000EEE4F0E0808188608C93AEE4B0E0EEE46A
:1018E000F0E080818F7E8C9386E080937F0106C13B
:1018F000AFE4B0E0EFE4F0E0808181608C93AFE48E
:10190000B0E0EFE4F0E0808182608C93AEE4B0E080
:10191000EEE4F0E0808188608C93AEE4B0E0EEE429
:10192000F0E080818F7E8C9387E080937F01E6C01A
:10193000AFE4B0E0EFE4F0E080818E7F8C93AFE421
:10194000B0E0EFE4F0E080818D7F8C93AEE4B0E016
:10195000EEE4F0E08081877F8C93AEE4B0E0EEE4CB
:10196000F0E0808180618C93C9C0AFE4B0E0EFE427
:10197000F0E0808181608C93AFE4B0E0EFE4F0E0D0
:1019800080818D7F8C93AEE4B0E0EEE4F0E0808166
:10199000877F8C93AEE4B0E0EEE4F0E0808180617C
:1019A0008C93ACC0AFE4B0E0EFE4F0E080818E7FD8
:1019B0008C93AFE4B0E0EFE4F0E0808182608C9340
:1019C000AEE4B0E0EEE4F0E08081877F8C93AEE49B
:1019D000B0E0EEE4F0E0808180618C938FC0AFE4F2
:1019E000B0E0EFE4F0E0808181608C93AFE4B0E0A0
:1019F000EFE4F0E0808182608C93AEE4B0E0EEE44E
:101A0000F0E08081877F8C93AEE4B0E0EEE4F0E01C
:101A1000808180618C9372C0AFE4B0E0EFE4F0E0CD
:101A200080818E7F8C93AFE4B0E0EFE4F0E08081C2
:101A300082608C93AEE4B0E0EEE4F0E080818860F8
:101A40008C93AEE4B0E0EEE4F0E080818F7E8C9386
:101A5000A9E5B0E0E9E5F0E080818B7F8C93A9E512
:101A6000B0E0E9E5F0E0808188608C93A9E5B0E022
:101A7000E9E5F0E0808180618C93A9E5B0E0E9E5DB
:101A8000F0E080818F7D8C9339C0AFE4B0E0EFE46B
:101A9000F0E080818E7F8C93AFE4B0E0EFE4F0E083
:101AA000808182608C93AEE4B0E0EEE4F0E080816F
:101AB00088608C93AEE4B0E0EEE4F0E08081806179
:101AC0008C931CC0AFE4B0E0EFE4F0E08081816073
:101AD0008C93AFE4B0E0EFE4F0E0808182608C931F
:101AE000AEE4B0E0EEE4F0E0808188608C93AEE498
:101AF000B0E0EEE4F0E0808180618C938A81282F51
:101B000030E03F832E838E819F818130910521F1CA
:101B10002E813F81223031052CF48E819F810097E8
:101B200061F046C02E813F812230310521F18E8146
:101B30009F818330910571F13BC0AFE4B0E0EFE4E9
:101B4000F0E080818F7B8C93AFE4B0E0EFE4F0E0D5
:101B500080818F778C932CC0AFE4B0E0EFE4F0E0AD
:101B6000808180648C93AFE4B0E0EFE4F0E08081AA
:101B70008F778C931DC0AFE4B0E0EFE4F0E080819C
:101B80008F7B8C93AFE4B0E0EFE4F0E0808180687D
:101B90008C930EC0AFE4B0E0EFE4F0E080818064AD
:101BA0008C93AFE4B0E0EFE4F0E0808180688C9348
:101BB0008B81282F30E03D832C838C819D81813067
:101BC000910521F12C813D81223031052CF48C814D
:101BD0009D81009761F046C02C813D812230310506
:101BE00021F18C819D818330910571F13BC0AFE47F
:101BF000B0E0EFE4F0E080818F7E8C93AFE4B0E062
:101C0000EFE4F0E080818F7D8C932CC0AFE4B0E0F6
:101C1000EFE4F0E0808180618C93AFE4B0E0EFE42A
:101C2000F0E080818F7D8C931DC0AFE4B0E0EFE4E5
:101C3000F0E080818F7E8C93AFE4B0E0EFE4F0E0E1
:101C4000808180628C930EC0AFE4B0E0EFE4F0E0FE
:101C5000808180618C93AFE4B0E0EFE4F0E08081BC
:101C600080628C93AEE4B0E0EEE4F0E080818E7FA1
:101C70008C93AEE4B0E0EEE4F0E0808182608C937F
:101C8000AEE4B0E0EEE4F0E080818B7F8C932996A7
:101C90000FB6F894DEBF0FBECDBFCF91DF91089590
:101CA000DF93CF9300D000D00F92CDB7DEB78B83F8
:101CB00080917F01282F30E03D832C834C815D8112
:101CC0004330510509F45BC08C819D8184309105BE
:101CD0005CF42C813D8121303105C9F04C815D815E
:101CE0004230510581F1ABC08C819D8186309105D8
:101CF00009F475C02C813D812730310509F484C079
:101D00004C815D814530510509F455C098C08B81E7
:101D1000282F30E08EEF91E0AC01249FC001259F79
:101D2000900D349F900D112424E630E0B9010E94FB
:101D30000E1FCB019A838983EAE4F0E089819A81BE
:101D4000918380837CC08B81282F30E08EEF93E0DD
:101D5000AC01249FC001259F900D349F900D11244C
:101D600024E630E0B9010E940E1FCB019A838983DB
:101D7000EAE4F0E089819A819183808360C08B815D
:101D8000282F30E08EEF97E0AC01249FC001259F03
:101D9000900D349F900D112424E630E0B9010E948B
:101DA0000E1FCB019A838983EAE4F0E089819A814E
:101DB0009183808344C08B81882F90E0982F88275F
:101DC00024E630E0B9010E94221FCB019A83898367
:101DD000EAE4F0E089819A819183808330C08B812D
:101DE000882F90E0982F8827990F24E630E0B901DA
:101DF0000E94221FCB019A838983EAE4F0E0898163
:101E00009A81918380831BC08B81282F30E08FEFD4
:101E100093E0AC01249FC001259F900D349F900D4D
:101E2000112424E630E0B9010E940E1FCB019A83F1
:101E30008983EAE4F0E089819A81918380830F901D
:101E40000F900F900F900F90CF91DF910895DF9337
:101E5000CF9300D000D00F92CDB7DEB78B838091A7
:101E60007F01282F30E03D832C834C815D814330FE
:101E7000510509F45BC08C819D81843091055CF42F
:101E80002C813D8121303105C9F04C815D8142308A
:101E9000510581F1ABC08C819D818630910509F49B
:101EA00075C02C813D812730310509F484C04C81F7
:101EB0005D814530510509F455C098C08B81282FAC
:101EC00030E08EEF91E0AC01249FC001259F900D82
:101ED000349F900D112424E630E0B9010E940E1FBA
:101EE000CB019A838983E8E4F0E089819A81918328
:101EF00080837CC08B81282F30E08EEF93E0AC0193
:101F0000249FC001259F900D349F900D112424E63D
:101F100030E0B9010E940E1FCB019A838983E8E467
:101F2000F0E089819A819183808360C08B81282F22
:101F300030E08EEF97E0AC01249FC001259F900D0B
:101F4000349F900D112424E630E0B9010E940E1F49
:101F5000CB019A838983E8E4F0E089819A819183B7
:101F6000808344C08B81882F90E0982F882724E6B7
:101F700030E0B9010E94221FCB019A838983E8E4F3
:101F8000F0E089819A819183808330C08B81882F92
:101F900090E0982F8827990F24E630E0B9010E943D
:101FA000221FCB019A838983E8E4F0E089819A813A
:101FB000918380831BC08B81282F30E08FEF93E0CB
:101FC000AC01249FC001259F900D349F900D1124DA
:101FD00024E630E0B9010E940E1FCB019A83898369
:101FE000E8E4F0E089819A81918380830F900F90DB
:101FF0000F900F900F90CF91DF910895DF93CF93C3
:1020000000D0CDB7DEB79A838983EBE4F0E0898115
:102010009A81892F99278083EAE4F0E0898180837F
:102020000F900F90CF91DF910895DF93CF9300D061
:10203000CDB7DEB79A838983E8E4F0E089819A819D
:10204000918380830F900F90CF91DF910895DF935C
:10205000CF9300D0CDB7DEB79A838983E7E4F0E071
:1020600089819A81892F99278083E6E4F0E089812C
:1020700080830F900F90CF91DF910895DF93CF93DE
:10208000CDB7DEB7AEE4B0E0EEE4F0E0808180648E
:102090008C93A9E5B0E0E9E5F0E0808180628C9363
:1020A000AEE4B0E0EEE4F0E080818E7F8C93AEE4AD
:1020B000B0E0EEE4F0E0808182608C93AEE4B0E0CA
:1020C000EEE4F0E080818B7F8C93CF91DF910895D7
:1020D000DF93CF930F92CDB7DEB7898389818130AB
:1020E00041F4AEE4B0E0EEE4F0E0808180648C93F3
:1020F0000AC08981882339F4AEE4B0E0EEE4F0E070
:1021000080818F7B8C930F90CF91DF910895DF9327
:10211000CF93CDB7DEB7E6E4F0E080819181CF9137
:10212000DF910895DF93CF9300D0CDB7DEB79A83C8
:10213000898389819A8190937B0180937A010F90A2
:102140000F90CF91DF910895DF93CF93CDB7DEB796
:10215000ECE4F0E011821082CF91DF9108951F929C
:102160000F920FB60F9211242F933F934F935F93CB
:102170006F937F938F939F93AF93BF93EF93FF934F
:10218000DF93CF93CDB7DEB780917A0190917B0139
:10219000009729F0E0917A01F0917B010995CF91A8
:1021A000DF91FF91EF91BF91AF919F918F917F91BF
:1021B0006F915F914F913F912F910F900FBE0F90B4
:1021C0001F901895DF93CF93CDB7DEB7AFE5B0E0A2
:1021D000EFE5F0E0808180688C93CF91DF910895E6
:1021E000DF93CF93CDB7DEB7AFE5B0E0EFE5F0E03A
:1021F00080818F778C93CF91DF910895DF93CF9378
:10220000CDB7DEB727970FB6F894DEBF0FBECDBFB0
:1022100089836A834B838B81813009F06FC0898108
:10222000282F30E03F832E838E819F81813091055E
:1022300049F12E813F81223031052CF48E819F811E
:10224000009761F0D2C02E813F812230310571F1BB
:102250008E819F8183309105E9F1C7C0AAE3B0E088
:10226000EAE3F0E08081482F8A81282F30E081E086
:1022700090E0022E02C0880F991F0A94E2F7842B87
:102280008C93B3C0A7E3B0E0E7E3F0E08081482F90
:102290008A81282F30E081E090E0022E02C0880F72
:1022A000991F0A94E2F7842B8C939FC0A4E3B0E0BB
:1022B000E4E3F0E08081482F8A81282F30E081E03C
:1022C00090E0022E02C0880F991F0A94E2F7842B37
:1022D0008C938BC0A1E3B0E0E1E3F0E08081482F74
:1022E0008A81282F30E081E090E0022E02C0880F22
:1022F000991F0A94E2F7842B8C9377C08B818823F3
:1023000009F073C08981282F30E03D832C838C81B4
:102310009D818130910559F12C813D81223031051B
:102320002CF48C819D81009769F05FC02C813D81E8
:102330002230310589F18C819D818330910509F42A
:1023400040C053C0AAE3B0E0EAE3F0E08081482F48
:102350008A81282F30E081E090E0022E02C0880FB1
:10236000991F0A94E2F7809584238C933EC0A7E3DB
:10237000B0E0E7E3F0E08081482F8A81282F30E049
:1023800081E090E0022E02C0880F991F0A94E2F7C4
:10239000809584238C9329C0A4E3B0E0E4E3F0E0CB
:1023A0008081482F8A81282F30E081E090E0022E42
:1023B00002C0880F991F0A94E2F7809584238C93BA
:1023C00014C0A1E3B0E0E1E3F0E08081482F8A810E
:1023D000282F30E081E090E0022E02C0880F991F84
:1023E0000A94E2F7809584238C9327960FB6F8948D
:1023F000DEBF0FBECDBFCF91DF910895DF93CF93A6
:10240000CDB7DEB727970FB6F894DEBF0FBECDBFAE
:1024100089836A834B838B81813009F06FC0898106
:10242000282F30E03F832E838E819F81813091055C
:1024300049F12E813F81223031052CF48E819F811C
:10244000009761F0D2C02E813F812230310571F1B9
:102450008E819F8183309105E9F1C7C0ABE3B0E085
:10246000EBE3F0E08081482F8A81282F30E081E083
:1024700090E0022E02C0880F991F0A94E2F7842B85
:102480008C93B3C0A8E3B0E0E8E3F0E08081482F8C
:102490008A81282F30E081E090E0022E02C0880F70
:1024A000991F0A94E2F7842B8C939FC0A5E3B0E0B8
:1024B000E5E3F0E08081482F8A81282F30E081E039
:1024C00090E0022E02C0880F991F0A94E2F7842B35
:1024D0008C938BC0A2E3B0E0E2E3F0E08081482F70
:1024E0008A81282F30E081E090E0022E02C0880F20
:1024F000991F0A94E2F7842B8C9377C08B818823F1
:1025000009F073C08981282F30E03D832C838C81B2
:102510009D818130910559F12C813D812230310519
:102520002CF48C819D81009769F05FC02C813D81E6
:102530002230310589F18C819D818330910509F428
:1025400040C053C0ABE3B0E0EBE3F0E08081482F44
:102550008A81282F30E081E090E0022E02C0880FAF
:10256000991F0A94E2F7809584238C933EC0A8E3D8
:10257000B0E0E8E3F0E08081482F8A81282F30E046
:1025800081E090E0022E02C0880F991F0A94E2F7C2
:10259000809584238C9329C0A5E3B0E0E5E3F0E0C7
:1025A0008081482F8A81282F30E081E090E0022E40
:1025B00002C0880F991F0A94E2F7809584238C93B8
:1025C00014C0A2E3B0E0E2E3F0E08081482F8A810A
:1025D000282F30E081E090E0022E02C0880F991F82
:1025E0000A94E2F7809584238C9327960FB6F8948B
:1025F000DEBF0FBECDBFCF91DF910895DF93CF93A4
:1026000000D000D00F92CDB7DEB78A836B838A816A
:10261000282F30E03D832C834C815D814130510572
:1026200041F18C819D818230910534F42C813D8172
:102630002115310561F052C04C815D814230510558
:1026400051F18C819D8183309105B9F147C0E9E357
:10265000F0E08081282F30E08B81882F90E0A90165
:1026600002C0559547958A95E2F7CA018170898322
:1026700035C0E6E3F0E08081282F30E08B81882FA1
:1026800090E0A90102C0559547958A95E2F7CA01E5
:102690008170898323C0E3E3F0E08081282F30E05C
:1026A0008B81882F90E0A90102C0559547958A95A6
:1026B000E2F7CA018170898311C0E0E3F0E0808114
:1026C000282F30E08B81882F90E0A90102C055951A
:1026D00047958A95E2F7CA018170898389810F90B5
:1026E0000F900F900F900F90CF91DF910895DF938F
:1026F000CF9300D000D0CDB7DEB789836A838981BC
:10270000282F30E03C832B838B819C818130910585
:1027100049F12B813C81223031052CF48B819C8145
:10272000009761F05AC02B813C812230310571F154
:102730008B819C8183309105E9F14FC0ABE3B0E020
:10274000EBE3F0E08081482F8A81282F30E081E0A0
:1027500090E0022E02C0880F991F0A94E2F78427A6
:102760008C933BC0A8E3B0E0E8E3F0E08081482F21
:102770008A81282F30E081E090E0022E02C0880F8D
:10278000991F0A94E2F784278C9327C0A5E3B0E051
:10279000E5E3F0E08081482F8A81282F30E081E056
:1027A00090E0022E02C0880F991F0A94E2F7842756
:1027B0008C9313C0A2E3B0E0E2E3F0E08081482F05
:1027C0008A81282F30E081E090E0022E02C0880F3D
:1027D000991F0A94E2F784278C930F900F900F9023
:1027E0000F90CF91DF910895DF93CF9300D000D069
:1027F000CDB7DEB789836A838981282F30E03C8397
:102800002B838B819C8181309105D1F02B813C8180
:10281000223031052CF48B819C81009761F01EC021
:102820002B813C812230310581F08B819C8183306A
:10283000910581F013C0EAE3F0E08A8180830EC045
:10284000E7E3F0E08A81808309C0E4E3F0E08A8175
:10285000808304C0E1E3F0E08A8180830F900F90D1
:102860000F900F90CF91DF910895DF93CF9300D019
:1028700000D0CDB7DEB789836A838981282F30E005
:102880003C832B838B819C8181309105D1F02B81FE
:102890003C81223031052CF48B819C81009761F0C2
:1028A0001EC02B813C812230310581F08B819C81BF
:1028B0008330910581F013C0EBE3F0E08A818083DF
:1028C0000EC0E8E3F0E08A81808309C0E5E3F0E030
:1028D0008A81808304C0E2E3F0E08A8180830F90E4
:1028E0000F900F900F90CF91DF910895DF93CF93CA
:1028F00000D000D0CDB7DEB78A838A81282F30E0A0
:102900003C832B838B819C8181309105D1F02B817D
:102910003C81223031052CF48B819C81009761F041
:102920001EC02B813C812230310581F08B819C813E
:102930008330910581F013C0E9E3F0E08081898361
:102940000EC0E6E3F0E08081898309C0E3E3F0E0B4
:102950008081898304C0E0E3F0E0808189838981FC
:102960000F900F900F900F90CF91DF910895DF930C
:10297000CF93CDB7DEB70E94E2100E943E1084EDE7
:1029800095E10E94921083E066E040E00E94FE1014
:1029900083E065E041E00E94FE1083E065E040E0F6
:1029A0000E94FE11CF91DF910895DF93CF93CDB7B1
:1029B000DEB768970FB6F894DEBF0FBECDBF83E0D9
:1029C00065E041E00E94FE1180E090E0A0E2B1E409
:1029D0008D8B9E8BAF8BB88F6D897E898F89988DFB
:1029E0002BEA3AEA4AE250E40E941F02DC01CB01E2
:1029F000898B9A8BAB8BBC8B69897A898B899C89F3
:102A000020E030E040E85FE30E94250488231CF4C6
:102A100081E0888B91C069897A898B899C8920E0C3
:102A200030E04FE753E40E94C50318160CF07BC05A
:102A30006D897E898F89988D20E030E04AE754E4E3
:102A40000E941903DC01CB018C879D87AE87BF876D
:102A50006C857D858E859F8520E030E04AEF54E4CB
:102A60000E941F02DC01CB0188879987AA87BB8758
:102A7000688579858A859B8520E030E040E85FE3C2
:102A80000E94250488232CF481E090E09F838E83AC
:102A90003FC0688579858A859B8520E03FEF4FE7B9
:102AA00057E40E94C50318164CF56C857D858E850C
:102AB0009F8520E030E040E251E40E941F02DC01EB
:102AC000CB01BC01CD010E944900DC01CB019F83F9
:102AD0008E830FC088EC90E09D838C838C819D81D8
:102AE0000197F1F79D838C838E819F8101979F834E
:102AF0008E838E819F81009769F724C068857985D0
:102B00008A859B850E944900DC01CB019F838E83CF
:102B10008E819F819B838A838A819B810197F1F7B4
:102B20009B838A830FC069897A898B899C890E94DB
:102B30004900DC01CB01888B8889898389818A954A
:102B4000F1F7898383E065E040E00E94FE1168961A
:102B50000FB6F894DEBF0FBECDBFCF91DF910895C1
:102B6000DF93CF9300D00F92CDB7DEB7198211C09B
:102B70000E94D51480917D0190917E012AE330E07E
:102B8000B9010E940E1FCB019B838A8389818F5FCD
:102B900089838981803160F38A819B810F900F90B6
:102BA0000F90CF91DF910895DF93CF93CDB7DEB72C
:102BB00080917C018F5F80937C0180917C018130CA
:102BC00031F40E94A41080E00E94681011C080912E
:102BD0007C01823069F40E94871090937E0180937B
:102BE0007D010E94A41010927C0181E00E94681077
:102BF000CF91DF910895DF93CF9300D0CDB7DEB7AB
:102C000089836A838A81882F90E0FC01E859FE4F0E
:102C100090818981692F0E9435140F900F90CF9178
:102C2000DF910895DF93CF93CDB7DEB783E065E002
:102C300041E00E94FE108EE062E040E00E94F50A52
:102C4000CF91DF910895DF93CF93CDB7DEB783E0C7
:102C500064E041E00E94FE108FE060E042E00E94EC
:102C6000F50ACF91DF910895DF93CF93CDB7DEB70B
:102C700028970FB6F894DEBF0FBECDBF6D837E835D
:102C80008F8398878FE19EE40E9427108D819E811B
:102C9000AF81B88520E337E040E050E0BC01CD01D2
:102CA0000E94EF1EDC01CB0124EB30E040E050E05D
:102CB000BC01CD010E94351FDA01C90180529E4F2F
:102CC000AF4FBF4F89839A83AB83BC8389819A813D
:102CD0000E94FE0F28960FB6F894DEBF0FBECDBF40
:102CE000CF91DF910895DF93CF93CDB7DEB72897CB
:102CF0000FB6F894DEBF0FBECDBF6D837E838F838A
:102D000098878FE19EE40E94FE0F8D819E81AF81A6
:102D1000B88520E337E040E050E0BC01CD010E94DF
:102D2000EF1EDC01CB0124EB30E040E050E0BC01C1
:102D3000CD010E94351FDA01C90180529E4FAF4F6D
:102D4000BF4F89839A83AB83BC8389819A810E9418
:102D5000151028960FB6F894DEBF0FBECDBFCF91E9
:102D6000DF910895DF93CF9300D00F92CDB7DEB7F8
:102D700089838981282F30E03B832A838A819B8144
:102D8000009759F02A813B812130310559F482E0C6
:102D900065E041E00E94FE1105C082E065E040E090
:102DA0000E94FE110F900F900F90CF91DF91089528
:102DB000DF93CF930F92CDB7DEB789838981882FB8
:102DC00090E0A0E0B0E0BC01CD010E94A904DC01CC
:102DD000CB01BC01CD010E94CB088981882F90E0F6
:102DE000A0E0B0E0BC01CD010E94A904DC01CB0150
:102DF000BC01CD010E940D0A0F90CF91DF91089583
:102E0000DF93CF93CDB7DEB782E061E040E00E9470
:102E1000FE1182E062E040E00E94FE1182E063E089
:102E200040E00E94FE1182E064E040E00E94FE115A
:102E3000CF91DF910895DF93CF93CDB7DEB782E0D6
:102E400061E040E00E94FE1182E062E041E00E9409
:102E5000FE1182E063E040E00E94FE1182E064E047
:102E600041E00E94FE11CF91DF910895DF93CF934F
:102E7000CDB7DEB782E061E041E00E94FE1182E062
:102E800062E040E00E94FE1182E063E041E00E94C7
:102E9000FE1182E064E040E00E94FE11CF91DF91DC
:102EA0000895DF93CF93CDB7DEB782E061E041E0D4
:102EB0000E94FE1182E062E040E00E94FE1182E08A
:102EC00063E040E00E94FE1182E064E041E00E9485
:102ED000FE11CF91DF910895DF93CF93CDB7DEB789
:102EE00082E061E040E00E94FE1182E062E041E0A9
:102EF0000E94FE1182E063E041E00E94FE1182E048
:102F000064E040E00E94FE11CF91DF910895DF93CD
:102F1000CF93CDB7DEB72E970FB6F894DEBF0FBEB6
:102F2000CDBF8CE30E94D8160E941B1780E090E072
:102F3000AAE2B3E48B879C87AD87BE876B857C85CF
:102F40008D859E8520E030E04AEF54E40E941F0208
:102F5000DC01CB018F839887A987BA876F81788539
:102F600089859A8520E030E040E85FE30E942504EF
:102F700088232CF481E090E09E838D833FC06F8195
:102F8000788589859A8520E03FEF4FE757E40E94D6
:102F9000C50318164CF56B857C858D859E8520E0D4
:102FA00030E040E251E40E941F02DC01CB01BC0191
:102FB000CD010E944900DC01CB019E838D830FC0AF
:102FC00088EC90E09C838B838B819C810197F1F747
:102FD0009C838B838D819E8101979E838D838D81C0
:102FE0009E81009769F714C06F81788589859A85DD
:102FF0000E944900DC01CB019E838D838D819E81DF
:103000009A83898389819A810197F1F79A838983C9
:103010002E960FB6F894DEBF0FBECDBFCF91DF91D5
:103020000895DF93CF93CDB7DEB7EC970FB6F89442
:10303000DEBF0FBECDBF9AAF89AF7CAF6BAF29ADFE
:103040003AAD8BAD9CAD8217930708F075C00E9416
:10305000511780E090E0AFEAB3E48DAB9EABAFAB2D
:10306000B8AF6DA97EA98FA998AD20E030E04AEFF6
:1030700054E40E941F02DC01CB0189AB9AABABABDD
:10308000BCAB69A97AA98BA99CA920E030E040E8F3
:103090005FE30E94250488232CF481E090E098AB44
:1030A0008FA73FC069A97AA98BA99CA920E03FEF0F
:1030B0004FE757E40E94C50318164CF56DA97EA989
:1030C0008FA998AD20E030E040E251E40E941F0259
:1030D000DC01CB01BC01CD010E944900DC01CB0128
:1030E00098AB8FA70FC088EC90E09EA78DA78DA509
:1030F0009EA50197F1F79EA78DA78FA598A9019787
:1031000098AB8FA78FA598A9009769F77AC169A98D
:103110007AA98BA99CA90E944900DC01CB0198AB3C
:103120008FA78FA598A99CA78BA78BA59CA5019776
:10313000F1F79CA78BA765C12BAD3CAD89AD9AADCE
:103140008217930708F075C00E946C1780E090E02A
:10315000AFEAB3E48FA398A7A9A7BAA76FA178A5F0
:1031600089A59AA520E030E04AEF54E40E941F02AE
:10317000DC01CB018BA39CA3ADA3BEA36BA17CA15F
:103180008DA19EA120E030E040E85FE30E9425048D
:1031900088232CF481E090E09AA389A33FC06BA11F
:1031A0007CA18DA19EA120E03FEF4FE757E40E9454
:1031B000C50318164CF56FA178A589A59AA520E03E
:1031C00030E040E251E40E941F02DC01CB01BC016F
:1031D000CD010E944900DC01CB019AA389A30FC055
:1031E00088EC90E098A38F8F8F8D98A10197F1F7CD
:1031F00098A38F8F89A19AA101979AA389A389A1E6
:103200009AA1009769F7FDC06BA17CA18DA19EA139
:103210000E944900DC01CB019AA389A389A19AA14C
:103220009E8F8D8F8D8D9E8D0197F1F79E8F8D8F47
:10323000E8C00E94361780E090E0A6E9B3E4898FE9
:103240009A8FAB8FBC8F698D7A8D8B8D9C8D20E092
:1032500030E04AEF54E40E941F02DC01CB018D8B69
:103260009E8BAF8BB88F6D897E898F89988D20E07A
:1032700030E040E85FE30E94250488232CF481E0DD
:1032800090E09C8B8B8B3FC06D897E898F89988D58
:1032900020E03FEF4FE757E40E94C50318164CF5B6
:1032A000698D7A8D8B8D9C8D20E030E040E251E479
:1032B0000E941F02DC01CB01BC01CD010E9449002C
:1032C000DC01CB019C8B8B8B0FC088EC90E09A8B40
:1032D000898B89899A890197F1F79A8B898B8B89D8
:1032E0009C8901979C8B8B8B8B899C89009769F7B4
:1032F00014C06D897E898F89988D0E944900DC01F8
:10330000CB019C8B8B8B8B899C89988B8F878F852E
:1033100098890197F1F7988B8F870E94511780E069
:1033200090E0AAEFB3E48B879C87AD87BE876B855F
:103330007C858D859E8520E030E04AEF54E40E9434
:103340001F02DC01CB018F839887A987BA876F8121
:10335000788589859A8520E030E040E85FE30E9427
:10336000250488232CF481E090E09E838D833FC068
:103370006F81788589859A8520E03FEF4FE757E494
:103380000E94C50318164CF56B857C858D859E853E
:1033900020E030E040E251E40E941F02DC01CB015A
:1033A000BC01CD010E944900DC01CB019E838D83CD
:1033B0000FC088EC90E09C838B838B819C8101976C
:1033C000F1F79C838B838D819E8101979E838D83F2
:1033D0008D819E81009769F714C06F8178858985FA
:1033E0009A850E944900DC01CB019E838D838D81EB
:1033F0009E819A83898389819A810197F1F79A83C3
:103400008983EC960FB6F894DEBF0FBECDBFCF9187
:10341000DF9108950F931F93DF93CF93CDB7DEB75E
:10342000CC55D0400FB6F894DEBF0FBECDBFFE0125
:10343000E55AFF4F11821082FE01E75AFF4F1182B9
:103440001082FE01E95AFF4F11821082FE01EB5AF1
:10345000FF4F84E190E0918380830E94B015FE01CC
:10346000E75AFF4F91838083FE01E75AFF4F808127
:103470009181009711F40E941B17FE01E75AFF4F3C
:10348000DE01AB5ABF4F208131818D919C91119704
:103490008217930718F40E941B1751C381E00E9402
:1034A000B216FE01EF5AFF4F80E090E0A8E4B3E4CB
:1034B00080839183A283B3838E01035B1F4FFE0140
:1034C000EF5AFF4F608171818281938120E030E06B
:1034D0004AEF54E40E941F02DC01CB01F801808313
:1034E0009183A283B383FE01E35BFF4F608171810F
:1034F0008281938120E030E040E85FE30E94250470
:10350000882344F4FE01E55BFF4F81E090E0918366
:10351000808364C0FE01E35BFF4F60817181828123
:10352000938120E03FEF4FE757E40E94C503181650
:103530000CF043C0FE01EF5AFF4F60817181828120
:10354000938120E030E040E251E40E941F02DC0160
:10355000CB018E01055B1F4FBC01CD010E944900CC
:10356000DC01CB01F801918380831FC0FE01E75B82
:10357000FF4F88EC90E091838083FE01E75BFF4F73
:10358000808191810197F1F7FE01E75BFF4F918305
:103590008083DE01A55BBF4FFE01E55BFF4F8081AD
:1035A0009181019711969C938E93FE01E55BFF4FED
:1035B000808191810097D1F627C08E01055B1F4F56
:1035C000FE01E35BFF4F60817181828193810E94E4
:1035D0004900DC01CB01F80191838083DE01A95B06
:1035E000BF4FFE01E55BFF4F808191818D939C93DE
:1035F000FE01E95BFF4F808191810197F1F7FE01A8
:10360000E95BFF4F9183808380E00E94B2160E94A5
:10361000001760E070E080E090E00E947316FE0109
:10362000ED5BFF4F80E090E0A6E9B3E480839183F7
:10363000A283B3838E01015C1F4FFE01ED5BFF4F40
:10364000608171818281938120E030E04AEF54E40F
:103650000E941F02DC01CB01F80180839183A283C9
:10366000B383FE01FF96608171818281938120E0A6
:1036700030E040E85FE30E94250488232CF481E0D9
:1036800090E09EAF8DAF46C0FE01FF9660817181D4
:103690008281938120E03FEF4FE757E40E94C5030A
:1036A000181664F5FE01ED5BFF4F60817181828128
:1036B000938120E030E040E251E40E941F02DC01EF
:1036C000CB01BC01CD010E944900DC01CB019EAFC2
:1036D0008DAF0FC088EC90E09CAF8BAF8BAD9CADF5
:1036E0000197F1F79CAF8BAF8DAD9EAD01979EAF6B
:1036F0008DAF8DAD9EAD009769F716C0FE01FF96A8
:1037000060817181828193810E944900DC01CB013B
:103710009EAF8DAF8DAD9EAD9AAF89AF89AD9AAD9D
:103720000197F1F79AAF89AF0E94B015FE01E95AEF
:10373000FF4F91838083FE01E95AFF4F8081918181
:10374000009739F4FE01E95AFF4F84E690E0918337
:10375000808380E090E0A8ECB2E48DAB9EABAFAB91
:10376000B8AF6DA97EA98FA998AD20E030E04AEFEF
:1037700054E40E941F02DC01CB0189AB9AABABABD6
:10378000BCAB69A97AA98BA99CA920E030E040E8EC
:103790005FE30E94250488232CF481E090E098AB3D
:1037A0008FA73FC069A97AA98BA99CA920E03FEF08
:1037B0004FE757E40E94C50318164CF56DA97EA982
:1037C0008FA998AD20E030E040E251E40E941F0252
:1037D000DC01CB01BC01CD010E944900DC01CB0121
:1037E00098AB8FA70FC088EC90E09EA78DA78DA502
:1037F0009EA50197F1F79EA78DA78FA598A9019780
:1038000098AB8FA78FA598A9009769F714C069A9ED
:103810007AA98BA99CA90E944900DC01CB0198AB35
:103820008FA78FA598A99CA78BA78BA59CA501976F
:10383000F1F79CA78BA76AEA70E080E090E00E9415
:10384000731680E090E0AAEFB3E48FA398A7A9A72E
:10385000BAA76FA178A589A59AA520E030E04AEF24
:1038600054E40E941F02DC01CB018BA39CA3ADA3F7
:10387000BEA36BA17CA18DA19EA120E030E040E819
:103880005FE30E94250488232CF481E090E09AA352
:1038900089A33FC06BA17CA18DA19EA120E03FEF39
:1038A0004FE757E40E94C50318164CF56FA178A5A1
:1038B00089A59AA520E030E040E251E40E941F0271
:1038C000DC01CB01BC01CD010E944900DC01CB0130
:1038D0009AA389A30FC088EC90E098A38F8F8F8D57
:1038E00098A10197F1F798A38F8F89A19AA10197C9
:1038F0009AA389A389A19AA1009769F714C06BA123
:103900007CA18DA19EA10E944900DC01CB019AA35C
:1039100089A389A19AA19E8F8D8F8D8D9E8D0197F0
:10392000F1F79E8F8D8F0E94B015FE01E55AFF4F73
:1039300091838083FE01E55AFF4F8081918100973A
:1039400039F4FE01E55AFF4F84E690E091838083CD
:1039500080E090E0A8ECB2E4898F9A8FAB8FBC8FA7
:10396000698D7A8D8B8D9C8D20E030E04AEF54E498
:103970000E941F02DC01CB018D8B9E8BAF8BB88F19
:103980006D897E898F89988D20E030E040E85FE383
:103990000E94250488232CF481E090E09C8B8B8B83
:1039A0003FC06D897E898F89988D20E03FEF4FE77A
:1039B00057E40E94C50318164CF5698D7A8D8B8DDE
:1039C0009C8D20E030E040E251E40E941F02DC01C7
:1039D000CB01BC01CD010E944900DC01CB019C8BD5
:1039E0008B8B0FC088EC90E09A8B898B89899A89A0
:1039F0000197F1F79A8B898B8B899C8901979C8B16
:103A00008B8B8B899C89009769F714C06D897E899F
:103A10008F89988D0E944900DC01CB019C8B8B8B98
:103A20008B899C89988B8F878F8598890197F1F76F
:103A3000988B8F876AE570E080E090E00E947316B3
:103A400080E090E0A6E9B3E48B879C87AD87BE87D2
:103A50006B857C858D859E8520E030E04AEF54E4BF
:103A60000E941F02DC01CB018F839887A987BA8748
:103A70006F81788589859A8520E030E040E85FE3B2
:103A80000E94250488232CF481E090E09E838D839E
:103A90003FC06F81788589859A8520E03FEF4FE7A9
:103AA00057E40E94C50318164CF56B857C858D85FF
:103AB0009E8520E030E040E251E40E941F02DC01DC
:103AC000CB01BC01CD010E944900DC01CB019E83EA
:103AD0008D830FC088EC90E09C838B838B819C81CD
:103AE0000197F1F79C838B838D819E8101979E8343
:103AF0008D838D819E81009769F714C06F817885D1
:103B000089859A850E944900DC01CB019E838D83C3
:103B10008D819E819A83898389819A810197F1F7AA
:103B20009A838983FE01E55AFF4F80819181FE01CE
:103B3000E95AFF4F20813181B9010E941118C45AFE
:103B4000DF4F0FB6F894DEBF0FBECDBFCF91DF9130
:103B50001F910F910895DF93CF93CDB7DEB7619793
:103B60000FB6F894DEBF0FBECDBF1F860E943C0883
:103B70008F878F85282F30E0398B288B888999890A
:103B80008C34910509F4A3C0288939892D34310575
:103B90005CF48889998982349105D1F02889398922
:103BA0002634310571F0A7C088899989823591053D
:103BB00009F494C0288939892335310509F495C061
:103BC0009AC080E060E00E94FB150E941B1793C022
:103BD00080E061E00E94FB1581E00E94B21680E067
:103BE00090E0A8E4B3E48B879C87AD87BE876B85A4
:103BF0007C858D859E8520E030E04AEF54E40E946C
:103C00001F02DC01CB018F839887A987BA876F8158
:103C1000788589859A8520E030E040E85FE30E945E
:103C2000250488232CF481E090E09E838D833FC09F
:103C30006F81788589859A8520E03FEF4FE757E4CB
:103C40000E94C50318164CF56B857C858D859E8575
:103C500020E030E040E251E40E941F02DC01CB0191
:103C6000BC01CD010E944900DC01CB019E838D8304
:103C70000FC088EC90E09C838B838B819C810197A3
:103C8000F1F79C838B838D819E8101979E838D8329
:103C90008D819E81009769F714C06F817885898531
:103CA0009A850E944900DC01CB019E838D838D8122
:103CB0009E819A83898389819A810197F1F79A83FA
:103CC000898380E00E94B2160E94361714C080E0FB
:103CD00063E00E94FB150E9451170DC080E062E076
:103CE0000E94FB150E946C1706C080E064E00E94F1
:103CF000FB150E94001761960FB6F894DEBF0FBE49
:103D0000CDBFCF91DF910895DF93CF93CDB7DEB7CD
:103D100081E060E040E00E94FE1081E060E041E070
:103D20000E94FE110E94170783E060E040E00E94BD
:103D3000FE1083E061E041E00E94FE100E947108E5
:103D400081E063E041E00E94FE100E94B30983E03D
:103D500067E041E00E94FE100E9423166AE570E0D1
:103D600080E090E00E9473160E94B71482E30E94E4
:103D7000D81682E061E041E00E94FE1082E062E03D
:103D800041E00E94FE1082E063E041E00E94FE10EC
:103D900082E064E041E00E94FE1080E06FEF0E944C
:103DA000F41382E065E041E00E94FE10CF91DF91C4
:103DB0000895DF93CF930F92CDB7DEB70E94841E94
:103DC000198281E060E00E94FE1289838981882344
:103DD00019F40E940A1AF5CF0E94AB1DF2CF629F20
:103DE000D001739FF001829FE00DF11D649FE00DF3
:103DF000F11D929FF00D839FF00D749FF00D659F54
:103E0000F00D9927729FB00DE11DF91F639FB00D52
:103E1000E11DF91FBD01CF0111240895AA1BBB1B91
:103E200051E107C0AA1FBB1FA617B70710F0A61BBA
:103E3000B70B881F991F5A95A9F780959095BC01DB
:103E4000CD01089597FB092E07260AD077FD04D0EF
:103E5000E5DF06D000201AF4709561957F4F089534
:103E6000F6F7909581959F4F0895A1E21A2EAA1B0F
:103E7000BB1BFD010DC0AA1FBB1FEE1FFF1FA2171A
:103E8000B307E407F50720F0A21BB30BE40BF50B17
:103E9000661F771F881F991F1A9469F760957095A0
:103EA000809590959B01AC01BD01CF0108952F92A3
:103EB0003F924F925F926F927F928F929F92AF92BA
:103EC000BF92CF92DF92EF92FF920F931F93CF9307
:103ED000DF93CDB7DEB7CA1BDB0B0FB6F894DEBF9E
:103EE0000FBECDBF09942A88398848885F846E84C4
:103EF0007D848C849B84AA84B984C884DF80EE800E
:103F0000FD800C811B81AA81B981CE0FD11D0FB616
:103F1000F894DEBF0FBECDBFED010895F894FFCF3A
:103F20000000000000000000000102020303030380
:103F30000404040404040404050505050505050539
:103F40000505050505050505060606060606060619
:103F50000606060606060606060606060606060601
:103F600006060606060606060707070707070707E9
:103F700007070707070707070707070707070707D1
:103F800007070707070707070707070707070707C1
:103F900007070707070707070707070707070707B1
:103FA0000707070707070707080808080808080899
:103FB0000808080808080808080808080808080881
:103FC0000808080808080808080808080808080871
:103FD0000808080808080808080808080808080861
:103FE0000808080808080808080808080808080851
:103FF0000808080808080808080808080808080841
:104000000808080808080808080808080808080830
:104010000808080808080808080808080808080820
:0E4020000808080808080808717F50386D006D
:00000001FF
